:100000000C9462000C9475040C94A2040C948A0065
:100010000C948A000C948A000C948A000C948A0038
:100020000C948A000C948A000C948A000C948A0028
:100030000C948A000C948A000C948A000C948A0018
:100040000C94CF040C948A000C943F060C949106F7
:100050000C948A000C948A000C948A000C948A00F8
:100060000C948A000C948A000000000024002700F1
:100070002A0000000000250028002B0000000000DE
:1000800023002600290004040404040404040202DA
:100090000202020203030303030301020408102007
:1000A0004080010204081020010204081020000012
:1000B0000007000201000003040600000000000029
:1000C0000000000811241FBECFEFD8E0DEBFCDBF77
:1000D00012E0A0E0B1E0EEE1F7E102C005900D9280
:1000E000A635B107D9F713E0A6E5B2E001C01D922D
:1000F000A631B107E1F710E0C4ECD0E004C02297CC
:10010000FE010E94890BC23CD107C9F70E94570823
:100110000C948D0B0C940000FC017183608353835D
:1001200042830895FC01718F608F0895FC01808DDA
:10013000918D0895CF93DF93EC018A8160E00E9456
:10014000EA0582EE8EBD0DB407FEFDCF8EB58A8125
:1001500061E00E94EA05DF91CF910895CF93DF938C
:10016000EC018A8160E00E94EA0581EE8EBD0DB44B
:1001700007FEFDCF8EB58A8161E00E94EA05DF911E
:10018000CF9108950F931F93CF93DF93EC018B01D1
:10019000888160E00E94EA058A8160E00E94EA05A9
:1001A00081E68EBD0DB407FEFDCF8EB5FE0120E0C9
:1001B00030E009C01EBC0DB407FEFDCF8EB5828BAA
:1001C0002F5F3F4F319602171307A4F78A8161E032
:1001D0000E94EA05888161E00E94EA059E012E5E88
:1001E0003F4FC901DF91CF911F910F910895EF9279
:1001F000FF921F93CF93DF93EC01162F7A018A8130
:1002000060E00E94EA051EBD0DB407FEFDCF8EB56D
:10021000FE0120E030E009C01EBC0DB407FEFDCF9A
:100220008EB5828B2F5F3F4F3196E216F306A4F70F
:100230008A8161E00E94EA059E012E5E3F4FC9015E
:10024000DF91CF911F91FF90EF900895CF92DF92B1
:10025000EF92FF921F93CF93DF93EC01162F6A0169
:10026000790110628A8160E00E94EA051EBD0DB42A
:1002700007FEFDCF8EB520E030E00BC0F601E20FA7
:10028000F31F80818EBD0DB407FEFDCF8EB52F5FAD
:100290003F4F2E153F0594F38A8161E00E94EA05E5
:1002A000DF91CF911F91FF90EF90DF90CF90089555
:1002B000DF93CF9300D000D00F92CDB7DEB761307F
:1002C00011F02EE001C02FE0413011F4226001C096
:1002D0002D7F298360E0AE014F5F5F4F21E030E06A
:1002E0000E9426010F900F900F900F900F90CF91CA
:1002F000DF910895EF92FF920F931F938C019B0162
:100300007A0162E0A90121E030E00E942601C801E3
:1003100061E1A70121E030E00E9426011F910F91C9
:10032000FF90EF9008950F931F938C0161E041E0DF
:100330000E945801F801808161E00E94EA051F9146
:100340000F9108950F931F938C0160E041E00E948C
:100350005801F801808160E00E94EA051F910F9129
:100360000895CF92DF92EF92FF920F931F93CF9356
:10037000DF937C01162F072F6A01FC01828160E068
:100380000E94EA0580EA8EBD0DB407FEFDCF8EB552
:1003900080EF92E060E071E00E94D709812F902FFA
:1003A0009C018901C0E0D0E025C080EF92E065E0CB
:1003B00071E00E94D40980EF92E0BE014AE050E073
:1003C0000E94A20980EF92E06EE071E00E94D409E1
:1003D00080EF92E0F80160814AE050E00E94440919
:1003E000F80180818EBD0DB407FEFDCF8EB521963C
:1003F0000F5F1F4FCC15DD05C4F2F701828161E06C
:100400000E94EA05F701808161E00E94EA0561E04F
:1004100070E080E090E00E941705F701808160E0C5
:100420000E94EA05DF91CF911F910F91FF90EF900D
:10043000DF90CF9008950F931F938C01FC01808172
:1004400061E00E94AB05F801828161E00E94AB058A
:1004500081E00E941C0480E00E94250485E00E9447
:100460002A041F910F91089581E080935802089506
:100470000F931F93DF93CF930F92CDB7DEB780E436
:100480008983809156029091570267E08E010F5F39
:100490001F4FA80121E030E00E94260180E28983FD
:1004A000809156029091570267E0A80121E030E068
:1004B0000E94260180E18983809156029091570223
:1004C00067E0A80121E030E00E94260180915602F9
:1004D000909157020E94AE000F90CF91DF911F9133
:1004E0000F910895CF93DF9380EF92E061E171E087
:1004F0000E94D709809156029091570267E041E02F
:1005000050E00E94F700FC018081C82FD0E080FFFE
:1005100006C080EF92E06BE471E00E94D7099E0173
:1005200036952795CE019695879596958795822B3A
:100530008170282F30E0CE0143E0969587954A954B
:10054000E1F781709070282B392B232B31F080EF4D
:1005500092E068E571E00E94D709C4FF0CC080EF0B
:1005600092E06CE671E00E94D7098091560290916A
:1005700057020E94AE00C5FF06C080EF92E06FE711
:1005800071E00E94D709C6FF0CC080EF92E065E9D8
:1005900071E00E94D70981E090E090935A02809325
:1005A00059020E94380210925802DF91CF910895AB
:1005B000EF92FF920F931F93DF93CF9300D000D061
:1005C0000F92CDB7DEB780915802813011F40E94AE
:1005D00072028091340290913502892B09F580EFE7
:1005E00092E06CEA71E00E94D709DE011196ECE31B
:1005F000F2E085E001900D928150E1F78091560282
:1006000090915702BE016F5F7F4F45E050E00E941E
:10061000B10160ED77E080E090E00E94170543C0F3
:100620008091590290915A020197E9F58091560202
:100630009091570265E070E00E94C2007C0180EF5B
:1006400092E061EC71E00E94D70900E010E080EFD9
:1006500092E06BEC71E00E94D40980EF92E0B80167
:100660004AE050E00E94A20980EF92E064ED71E060
:100670000E94D409F701E00FF11F80EF92E0608142
:100680004AE050E00E9444090F5F1F4F05301105FA
:10069000F1F680915602909157020E949A001092B2
:1006A0005A021092590262E370E080E090E00E94EA
:1006B00017050F900F900F900F900F90CF91DF9133
:1006C0001F910F91FF90EF9008951F93DF93CF93A9
:1006D000CDB7DEB727970FB6F894DEBF0FBECDBFFC
:1006E00080EF92E040E855E260E070E00E94CC06C6
:1006F00080EF92E067ED71E00E94D7090E943B0411
:100700008AE190E00E946808809356029093570215
:1007100069E070E04AE050E00E948C00809156024F
:10072000909157020E941B0283E0898385E08A83AF
:100730008091560290915702BE016F5F7F4FAE01CC
:100740004E5F5F4F0E947A01DE011396E1E4F2E012
:1007500085E001900D928150E1F7809156029091D1
:1007600057026AE0AE014D5F5F4F25E030E00E9426
:10077000260180EF92E065EE71E00E94D70980913A
:100780003402909135022091560230915702892B04
:1007900021F0C9010E94930103C0C9010E94A20176
:1007A0000E943802809156029091570267E040E023
:1007B00050E00E94F700FC01108180EF92E065EFAD
:1007C00071E00E94D40980EF92E0612F42E050E096
:1007D0000E94440980915602909157026BE770E0A5
:1007E0000E94920080EF92E06EEF71E00E94D409C7
:1007F00080915602909157020E949600BC0180EFB2
:1008000092E04AE050E00E94B50964E670E080E0C2
:1008100090E00E94170580E064E372E042E050E05F
:100820000E94520427960FB6F894DEBF0FBECDBFCC
:10083000CF91DF911F910895882319F48CB58062C0
:1008400002C08CB58F7D8CBD08959CB5937F982B8D
:100850009CBD08952CB5382F33702C7F322B3CBDB6
:100860002DB590E0959587959595879581702E7F0C
:10087000822B8DBD08958AE061E00E94EA058AE03E
:1008800061E00E94AB058CB580618CBD8CB5806445
:100890008CBD8DE061E00E94AB058BE061E00E94C1
:1008A000AB050895823000F5E82FF0E0EE0FFF1F52
:1008B000E55AFD4F71836083882319F08130A1F4DC
:1008C00008C0809169008C7F842B80936900E89A2E
:1008D000089580916900440F551F440F551F837F71
:1008E000842B80936900E99A08951F920F920FB6A6
:1008F0000F9211242F933F934F935F936F937F93A6
:100900008F939F93AF93BF93EF93FF9380915B027D
:1009100090915C02892B29F0E0915B02F0915C02DE
:100920000995FF91EF91BF91AF919F918F917F9129
:100930006F915F914F913F912F910F900FBE0F904C
:100940001F9018951F920F920FB60F9211242F939C
:100950003F934F935F936F937F938F939F93AF9347
:10096000BF93EF93FF9380915D0290915E02892B7C
:1009700029F0E0915D02F0915E020995FF91EF91FF
:10098000BF91AF919F918F917F916F915F914F91A7
:100990003F912F910F900FBE0F901F9018951F92AF
:1009A0000F920FB60F9211242F933F938F939F9323
:1009B000AF93BF938091630290916402A09165020E
:1009C000B0916602309167020196A11DB11D232FDF
:1009D0002D5F2D3720F02D570196A11DB11D2093BD
:1009E00067028093630290936402A0936502B093C0
:1009F000660280915F0290916002A0916102B091C5
:100A000062020196A11DB11D80935F029093600266
:100A1000A0936102B0936202BF91AF919F918F91B9
:100A20003F912F910F900FBE0F901F9018959B0133
:100A3000AC017FB7F89480915F0290916002A09121
:100A40006102B091620266B5A89B05C06F3F19F0C4
:100A50000196A11DB11D7FBFBA2FA92F982F8827FE
:100A6000860F911DA11DB11D62E0880F991FAA1F5D
:100A7000BB1F6A95D1F7BC012DC0FFB7F8948091D8
:100A80005F0290916002A0916102B0916202E6B5AE
:100A9000A89B05C0EF3F19F00196A11DB11DFFBF36
:100AA000BA2FA92F982F88278E0F911DA11DB11D38
:100AB000E2E0880F991FAA1FBB1FEA95D1F7861B9A
:100AC000970B885E9340C8F2215030404040504020
:100AD00068517C4F211531054105510571F6089586
:100AE000789484B5826084BD84B5816084BD85B509
:100AF000826085BD85B5816085BDEEE6F0E08081D0
:100B000081608083E1E8F0E01082808182608083F0
:100B1000808181608083E0E8F0E080818160808373
:100B2000E1EBF0E0808184608083E0EBF0E08081A5
:100B300081608083EAE7F0E0808184608083808147
:100B400082608083808181608083808180688083EF
:100B50001092C1000895CF93DF93482F50E0CA014F
:100B600086569F4FFC0134914A575F4FFA0184919A
:100B7000882369F190E0880F991FFC01E859FF4F25
:100B8000A591B491FC01EE58FF4FC591D491662315
:100B900051F42FB7F8948C91932F909589238C93CF
:100BA000888189230BC0623061F42FB7F8948C914F
:100BB000932F909589238C938881832B88832FBFD3
:100BC00006C09FB7F8948C91832B8C939FBFDF91C5
:100BD000CF910895482F50E0CA0182559F4FFC01E4
:100BE0002491CA0186569F4FFC0194914A575F4F4A
:100BF000FA013491332309F440C0222351F1233008
:100C000071F0243028F42130A1F0223011F514C005
:100C10002630B1F02730C1F02430D9F404C08091DF
:100C200080008F7703C0809180008F7D809380004B
:100C300010C084B58F7702C084B58F7D84BD09C094
:100C40008091B0008F7703C08091B0008F7D80933A
:100C5000B000E32FF0E0EE0FFF1FEE58FF4FA5911D
:100C6000B4912FB7F894662321F48C919095892341
:100C700002C08C91892B8C932FBF089508951F92E9
:100C80000F920FB60F9211242F933F934F938F9390
:100C90009F93EF93FF938091C00082FD1DC0409110
:100CA000C6002091A8023091A9022F5F3F4F2F73F9
:100CB00030708091AA029091AB022817390771F029
:100CC000E091A802F091A902E859FD4F40833093CA
:100CD000A9022093A80202C08091C600FF91EF9163
:100CE0009F918F914F913F912F910F900FBE0F9039
:100CF0001F901895E091FC02F091FD02E05CFF4F1F
:100D00008191919120813181805C9F4F821B930B57
:100D100060E470E00E943E0B892B11F00E943E06B9
:100D200008951F920F920FB60F9211242F933F93A5
:100D30008F939F93EF93FF932091EC023091ED02FC
:100D40008091EE029091EF022817390731F48091DB
:100D5000C1008F7D8093C10014C0E091EE02F0913C
:100D6000EF02E455FD4F20818091EE029091EF0259
:100D700001968F7390709093EF028093EE02209310
:100D8000C600FF91EF919F918F913F912F910F900E
:100D90000FBE0F901F901895AF92BF92DF92EF9207
:100DA000FF920F931F93CF93DF93EC017A018B0196
:100DB000DD24403081EE580780E0680780E0780746
:100DC00011F0DD24D39491E0A92EB12CEC89FD899A
:100DD000DD2069F0C50108A002C0880F991F0A94A0
:100DE000E2F7808360E079E08DE390E005C0108257
:100DF00060E874E88EE190E0A80197010E94510B31
:100E000021503040404050405695479537952795A2
:100E100080E12030380720F0DD2011F0DD24D6CF2E
:100E2000E889F9893083EA89FB89208319A2EE8950
:100E3000FF89408121E030E0C9010C8C02C0880F9D
:100E4000991F0A94E2F7482B4083EE89FF8940817D
:100E5000C9010D8C02C0880F991F0A94E2F7482B34
:100E60004083EE89FF894081C9010E8C02C0880F42
:100E7000991F0A94E2F7482B4083EE89FF8980810D
:100E80000F8C02C0220F331F0A94E2F7209528230B
:100E90002083DF91CF911F910F91FF90EF90DF9012
:100EA000BF90AF900895DC011C96ED91FC911D97C9
:100EB000E05CFF4F8191919120813181805C9F4F57
:100EC000821B930B60E470E00E943E0B0895DC01EE
:100ED0001C96ED91FC911D97E05CFF4F20813181C4
:100EE000E054F040DF01AE5BBF4F8D919C911197B4
:100EF0002817390719F42FEF3FEF07C08D919C9108
:100F0000E80FF91F8081282F30E0C9010895DC0126
:100F10001C96ED91FC911D97E05CFF4F2081318183
:100F2000E054F040DF01AE5BBF4F8D919C91119773
:100F30002817390719F42FEF3FEF10C08D919C91BE
:100F40001197E80FF91F20818D919C9111970196BF
:100F50008F73907011969C938E9330E0C901089521
:100F6000DC0191968C919197882339F05496ED91FC
:100F7000FC915597808186FFF9CF91961C92089538
:100F8000CF93DF93EC01EE85FF85E05CFF4F20817E
:100F90003181E054F0402F5F3F4F2F733070DF01FD
:100FA000AE5BBF4F8D919C91119728173907D1F3F4
:100FB000E05CFF4F80819181E054F040E80FF91F21
:100FC0006083EE85FF85E05CFF4F31832083EE89EF
:100FD000FF89208181E090E00F8C02C0880F991F6B
:100FE0000A94E2F7282B208381E089A3EC89FD890C
:100FF00080818064808381E090E0DF91CF910895CB
:101000001092F3021092F20288EE93E0A0E0B0E0BA
:101010008093F4029093F502A093F602B093F70246
:101020008AE492E09093F1028093F00288E692E0E5
:101030009093FD028093FC028CEA92E09093FF0271
:101040008093FE0285EC90E090930103809300036F
:1010500084EC90E0909303038093020380EC90E093
:10106000909305038093040381EC90E09093070331
:101070008093060382EC90E0909309038093080329
:1010800086EC90E090930B0380930A0384E08093B6
:101090000C0383E080930D0387E080930E0385E0CB
:1010A00080930F0381E08093100308950895CF93F8
:1010B000DF930E9470050E9456080E946503CAE7EC
:1010C000D6E00E94D8022097E1F30E947A06F9CF79
:1010D0000E94EA090895CF92DF92EF92FF920F9358
:1010E0001F93CF93DF937C016B018A01C0E0D0E0B6
:1010F0000FC0D6016D916D01D701ED91FC9101906A
:10110000F081E02DC7010995C80FD91F015010408B
:101110000115110571F7CE01DF91CF911F910F914C
:10112000FF90EF90DF90CF900895EF92FF920F9392
:101130001F938C01DC01ED91FC910190F081E02D79
:101140006DE009957C01D801ED91FC910190F08151
:10115000E02DC8016AE009959C012E0D3F1DC901D3
:101160001F910F91FF90EF900895CF93DF93EC01C3
:101170006115710519F420E030E00FC0DB010D901E
:101180000020E9F71197A61BB70BE881F9810280CF
:10119000F381E02DAD0109959C01C901DF91CF914B
:1011A00008954F925F927F928F929F92AF92BF92DB
:1011B000CF92DF92EF92FF920F931F93DF93CF9323
:1011C000CDB7DEB7A1970FB6F894DEBF0FBECDBF87
:1011D0002C01742ECB01223008F42AE019A231E24E
:1011E000C32ED12CCC0EDD1E822E9924AA24BB2422
:1011F000672D752FA50194010E94510B79018A0179
:10120000C801B701A50194010E941F0B472D461B81
:101210000894C108D1084A3014F4405D01C0495C0B
:10122000F6014083E114F1040105110521F07E2C43
:101230005F2DC801DDCFC201B6010E94B508A1969D
:101240000FB6F894DEBF0FBECDBFCF91DF911F91D7
:101250000F91FF90EF90DF90CF90BF90AF909F9055
:101260008F907F905F904F900895DC01211531059C
:1012700041F4ED91FC910190F081E02D642F0995EE
:1012800008950E94D1080895CF92DF92EF92FF92C5
:101290000F931F936C01E62E9A01FF2400E010E0EB
:1012A000B801A7010E9435098C01C6010E9495086A
:1012B000080F191FC8011F910F91FF90EF90DF9049
:1012C000CF900895CF92DF92EF92FF920F931F93EA
:1012D000CF93DF93EC016A017B012115310541F4C5
:1012E000E881F9810190F081E02D642F09951FC0FC
:1012F0002A303105D1F477FF17C0E881F9810190D8
:10130000F081E02D6DE209958C0144275527BA0143
:101310004C195D096E097F09CE012AE00E94D108AF
:101320009801280F391F04C02AE00E94D1089C01AF
:10133000C901DF91CF911F910F91FF90EF90DF9046
:10134000CF900895EF92FF920F931F937B019A0124
:101350000027F7FC0095102FB801A7010E94620931
:101360001F910F91FF90EF900895CF92DF92EF922F
:10137000FF920F931F936C017B019A010027F7FCEA
:101380000095102FB801A7010E9462098C01C601C7
:101390000E949508080F191FC8011F910F91FF9017
:1013A000EF90DF90CF9008950E94B5080895EF92D6
:1013B000FF920F931F937C010E94B5088C01C70117
:1013C0000E949508080F191FC8011F910F91FF90E7
:1013D000EF9008950F931F93CF93DF93BC0182305A
:1013E000910510F462E070E0E0911403F0911503B0
:1013F00040E050E0A0E0B0E024C0808191818617F9
:101400009707D0F08617970771F482819381109720
:1014100029F013969C938E9312972CC090931503EA
:101420008093140327C04115510519F084179507BF
:1014300018F48D01AC01EF01DF01828193819C01E1
:10144000F9013097D1F641155105F9F0CA01861B13
:10145000970B8430910580F48A819B8101151105D9
:1014600021F0F8019383828304C090931503809345
:101470001403FE01329645C0FE01E80FF91F619387
:1014800071930297998388833CC080911203909155
:101490001303892B41F48091380290913902909383
:1014A00013038093120340913A0250913B0241157D
:1014B000510541F44DB75EB78091360290913702E5
:1014C000481B590B20911203309113032417350741
:1014D000B0F4CA01821B930B8617970780F0AB010B
:1014E0004E5F5F4F8417950750F0420F531F509384
:1014F000130340931203F9016193719302C0E0E07A
:10150000F0E0CF01DF91CF911F910F910895CF931C
:10151000DF939C01009709F48FC0EC0122971B8296
:101520001A8260911403709115036115710581F49D
:1015300088819981820F931F2091120330911303A8
:101540002817390739F5D0931303C093120374C0D9
:10155000DB0140E050E0AC17BD0708F1BB83AA8374
:10156000FE0121913191E20FF31FAE17BF0779F40D
:101570008D919C911197280F391F2E5F3F4F398312
:10158000288312968D919C9113979B838A83411592
:10159000510571F4D0931503C09314034DC01296F6
:1015A0008D919C911397AD01009711F0DC01D3CF81
:1015B000DA011396DC93CE931297FA0121913191BF
:1015C000E20FF31FCE17DF0769F488819981280F96
:1015D000391F2E5F3F4FFA01318320838A819B811F
:1015E00093838283E0E0F0E0DB0112968D919C9181
:1015F0001397009719F0BC01FD01F6CFAB014E5FC8
:101600005F4FDB018D919C91840F951F20911203F8
:10161000309113032817390779F4309729F4109281
:1016200015031092140302C01382128242505040DC
:101630005093130340931203DF91CF910895629F5B
:10164000D001739FF001829FE00DF11D649FE00DBA
:10165000F11D929FF00D839FF00D749FF00D659F1B
:10166000F00D9927729FB00DE11DF91F639FB00D1A
:10167000E11DF91FBD01CF011124089597FB092E2B
:1016800007260AD077FD04D02ED006D000201AF409
:10169000709561957F4F0895F6F7909581959F4FCE
:1016A0000895A1E21A2EAA1BBB1BFD010DC0AA1FA3
:1016B000BB1FEE1FFF1FA217B307E407F50720F0BB
:1016C000A21BB30BE40BF50B661F771F881F991F36
:1016D0001A9469F760957095809590959B01AC017F
:1016E000BD01CF010895AA1BBB1B51E107C0AA1F72
:1016F000BB1FA617B70710F0A61BB70B881F991FB3
:101700005A95A9F780959095BC01CD010895EE0FEB
:0E171000FF1F0590F491E02D0994F894FFCF8F
:10171E004441544100456C656D656E7420003A205D
:10172E0000202D2D2D2D2D2D2D2D2D2D2D2D2D2D15
:10173E002D2D2D2D20524553504F4E4420544F20C9
:10174E00495251202D2D2D2D2D2D2D2D2D2D2D2D63
:10175E002D2D2D2D2D2D2D2D2D200054585F46492C
:10176E00464F2046756C6C0050697065204E756D45
:10177E00626572204368616E676564004D61782012
:10178E005458207265747269657320495251004431
:10179E006174612053656E74205458204649464F3B
:1017AE002049525100446174612072656164792050
:1017BE005258204649464F20495251005472616E8C
:1017CE00736D697420636F64652061626320676F57
:1017DE0000525820446174613A2000456C656D6575
:1017EE006E7420003A2000426567696E2073746142
:1017FE007274757000436F6E6669677572652052FC
:10180E006164696F005354415455533A20002A2A9B
:10181E002A2A2A2A2A2A2A2A2A2A2A2A2A2A2A2A1A
:10182E002A2A2A2A2A2A2A2A2A2A2A2A2A2A2A2A0A
:10183E002A2A2A2A202064656275675F76616C20E9
:10184E00203D200001008000160300000102030469
:10185E001AE7E7E7E7E700000000C0076B08530749
:06186E0087076707B007C1
:00000001FF
