:100000000C9462000C94FE020C942B030C948A0056
:100010000C948A000C948A000C948A000C948A0038
:100020000C948A000C948A000C948A000C948A0028
:100030000C948A000C948A000C948A000C948A0018
:100040000C9458030C948A000C94C8040C941A0560
:100050000C948A000C948A000C948A000C948A00F8
:100060000C948A000C948A000000000024002700F1
:100070002A0000000000250028002B0000000000DE
:1000800023002600290004040404040404040202DA
:100090000202020203030303030301020408102007
:1000A0004080010204081020010204081020000012
:1000B0000007000201000003040600000000000029
:1000C0000000890611241FBECFEFD8E0DEBFCDBFF0
:1000D00012E0A0E0B1E0EAE0F4E102C005900D9288
:1000E000A232B107D9F712E0A2E2B2E001C01D923C
:1000F000A03EB107E1F710E0C4ECD0E004C02297C5
:10010000FE010E94FF09C23CD107C9F70E94E00628
:100110000C94030A0C940000FC01718360835383E8
:1001200042830895FC01718F608F0895FC01808DDA
:10013000918D0895CF93DF93EC018A8160E00E9456
:10014000730481EE8EBD0DB407FEFDCF8EB58A819E
:1001500061E00E947304DF91CF910895EF92FF92C6
:100160001F93CF93DF93EC01162F7A018A8160E011
:100170000E9473041EBD0DB407FEFDCF8EB5FE01B7
:1001800020E030E009C01EBC0DB407FEFDCF8EB5E7
:10019000828B2F5F3F4F3196E216F306A4F79E0144
:1001A0002E5E3F4FC901DF91CF911F91FF90EF90DD
:1001B0000895CF92DF92EF92FF921F93CF93DF9338
:1001C000EC01162F6A01790110628A8160E00E94B9
:1001D00073041EBD0DB407FEFDCF8EB520E030E0E8
:1001E0000BC0F601E20FF31F80818EBD0DB407FE38
:1001F000FDCF8EB52F5F3F4F2E153F0594F38A81BB
:1002000061E00E947304DF91CF911F91FF90EF9006
:10021000DF90CF900895DF93CF9300D000D00F925E
:10022000CDB7DEB7613011F02EE001C02FE04130D4
:1002300011F4226001C02D7F298360E0AE014F5F81
:100240005F4F21E030E00E94D9000F900F900F9097
:100250000F900F90CF91DF9108950F931F938C0112
:1002600060E041E00E940B01F801808160E00E94A3
:1002700073041F910F910895CF92DF92EF92FF9236
:100280000F931F938C017B016A010E942D01C8010D
:1002900060EAA70196010E94D900F801808161E01F
:1002A0000E94730461E070E080E090E00E94A0038F
:1002B000F801808160E00E9473041F910F91FF900C
:1002C000EF90DF90CF9008950F931F938C01FC0166
:1002D000808161E00E943404F801828161E00E9423
:1002E000340481E00E94A50280E00E94AE0285E015
:1002F0000E94B3021F910F91089581E08093240220
:1003000008950F931F93DF93CF930F92CDB7DEB76E
:1003100080E48983809122029091230267E08E011C
:100320000F5F1F4FA80121E030E00E94D90080E25A
:100330008983809122029091230267E0A80121E045
:1003400030E00E94D90080E189838091220290915F
:10035000230267E0A80121E030E00E94D9008091EB
:100360002202909123020E949A000F90CF91DF9178
:100370001F910F9108951F938AEB92E060E071E066
:100380000E944D08809122029091230267E041E093
:1003900050E00E94AE00FC018081182F14FF06C0BF
:1003A0008AEB92E06AE371E00E944D0815FF06C0F7
:1003B0008AEB92E06DE471E00E944D0816FF06C0E2
:1003C0008AEB92E063E671E00E944D080E94810191
:1003D0001F910895DF93CF930F92CDB7DEB7809131
:1003E0002402813011F40E94BB018AEB92E06AE79B
:1003F00071E00E944D088AEB92E06DE971E00E9485
:100400004A08809122029091230267E040E050E088
:100410000E94AE00FC018AEB92E0608142E050E075
:100420000E94CD078AEB92E066EA71E00E944D08D7
:1004300081E089838091220290912302BE016F5F47
:100440007F4F41E050E00E943C0160ED77E080E0AA
:1004500090E00E94A0030F90CF91DF910895FF924A
:100460000F931F930AEB12E0C80140E855E260E0E9
:1004700070E00E945505C80168EB71E00E944D08CC
:100480000E94C4028AE190E00E94F1068093220259
:100490009093230269E070E04AE050E00E948C00F3
:1004A00080912202909123020E946401C80166ECAF
:1004B00071E00E944D08809122029091230260E039
:1004C00041E00E940B010E948101809122029091E3
:1004D000230267E040E050E00E94AE00FC01F080A3
:1004E000C8016DE971E00E944A08C8016F2D42E021
:1004F00050E00E94CD0780912202909123026BE789
:1005000070E00E949200C80166ED71E00E944A0806
:1005100080912202909123020E949600BC01C801A2
:100520004AE050E00E942B0864E670E080E090E032
:100530000E94A00380E06DE771E042E050E00E947D
:10054000DB021F910F91FF900895882319F48CB559
:10055000806202C08CB58F7D8CBD08959CB5937F61
:10056000982B9CBD08952CB5382F33702C7F322BDF
:100570003CBD2DB590E095958795959587958170B3
:100580002E7F822B8DBD08958AE061E00E94730466
:100590008AE061E00E9434048CB580618CBD8CB52A
:1005A00080648CBD8DE061E00E9434048BE061E0EA
:1005B0000E9434040895823000F5E82FF0E0EE0F39
:1005C000FF1FEB5DFD4F71836083882319F081303D
:1005D000A1F408C0809169008C7F842B809369000E
:1005E000E89A089580916900440F551F440F551FE4
:1005F000837F842B80936900E99A08951F920F925C
:100600000FB60F9211242F933F934F935F936F93E5
:100610007F938F939F93AF93BF93EF93FF938091BB
:10062000250290912602892B29F0E0912502F09174
:1006300026020995FF91EF91BF91AF919F918F9104
:100640007F916F915F914F913F912F910F900FBECE
:100650000F901F9018951F920F920FB60F921124B2
:100660002F933F934F935F936F937F938F939F93BA
:10067000AF93BF93EF93FF9380912702909128024D
:10068000892B29F0E0912702F09128020995FF912A
:10069000EF91BF91AF919F918F917F916F915F91FA
:1006A0004F913F912F910F900FBE0F901F90189573
:1006B0001F920F920FB60F9211242F933F938F9397
:1006C0009F93AF93BF9380912D0290912E02A091A2
:1006D0002F02B0913002309131020196A11DB11D5F
:1006E000232F2D5F2D3720F02D570196A11DB11D11
:1006F0002093310280932D0290932E02A0932F021B
:10070000B09330028091290290912A02A0912B028D
:10071000B0912C020196A11DB11D809329029093E6
:100720002A02A0932B02B0932C02BF91AF919F910C
:100730008F913F912F910F900FBE0F901F901895A2
:100740009B01AC017FB7F8948091290290912A0215
:10075000A0912B02B0912C0266B5A89B05C06F3FFB
:1007600019F00196A11DB11D7FBFBA2FA92F982F97
:100770008827860F911DA11DB11D62E0880F991F6A
:10078000AA1FBB1F6A95D1F7BC012DC0FFB7F89413
:100790008091290290912A02A0912B02B0912C0203
:1007A000E6B5A89B05C0EF3F19F00196A11DB11D4C
:1007B000FFBFBA2FA92F982F88278E0F911DA11D3B
:1007C000B11DE2E0880F991FAA1FBB1FEA95D1F760
:1007D000861B970B885E9340C8F221503040404002
:1007E000504068517C4F211531054105510571F686
:1007F0000895789484B5826084BD84B5816084BD99
:1008000085B5826085BD85B5816085BDEEE6F0E089
:10081000808181608083E1E8F0E0108280818260E5
:100820008083808181608083E0E8F0E08081816066
:100830008083E1EBF0E0808184608083E0EBF0E096
:10084000808181608083EAE7F0E08081846080833A
:1008500080818260808380818160808380818068E4
:1008600080831092C1000895CF93DF93482F50E00A
:10087000CA0186569F4FFC0134914A575F4FFA01D7
:100880008491882369F190E0880F991FFC01E85951
:10089000FF4FA591B491FC01EE58FF4FC591D49143
:1008A000662351F42FB7F8948C91932F9095892358
:1008B0008C93888189230BC0623061F42FB7F89440
:1008C0008C91932F909589238C938881832B888397
:1008D0002FBF06C09FB7F8948C91832B8C939FBF3A
:1008E000DF91CF910895482F50E0CA0182559F4F64
:1008F000FC012491CA0186569F4FFC0194914A57EE
:100900005F4FFA013491332309F440C0222351F19F
:10091000233071F0243028F42130A1F0223011F579
:1009200014C02630B1F02730C1F02430D9F404C00F
:10093000809180008F7703C0809180008F7D8093AD
:10094000800010C084B58F7702C084B58F7D84BDD0
:1009500009C08091B0008F7703C08091B0008F7D77
:100960008093B000E32FF0E0EE0FFF1FEE58FF4F33
:10097000A591B4912FB7F894662321F48C919095AA
:10098000892302C08C91892B8C932FBF08950895E1
:100990001F920F920FB60F9211242F933F934F93F4
:1009A0008F939F93EF93FF938091C00082FD1DC0B2
:1009B0004091C60020917202309173022F5F3F4F29
:1009C0002F73307080917402909175022817390747
:1009D00071F0E0917202F0917302EE5CFD4F408382
:1009E000309373022093720202C08091C600FF917F
:1009F000EF919F918F914F913F912F910F900FBE4B
:100A00000F901F901895E091C602F091C702E05C2C
:100A1000FF4F8191919120813181805C9F4F821B9A
:100A2000930B60E470E00E94B409892B11F00E94DE
:100A3000C70408951F920F920FB60F9211242F939F
:100A40003F938F939F93EF93FF932091B602309142
:100A5000B7028091B8029091B9022817390731F492
:100A60008091C1008F7D8093C10014C0E091B802D5
:100A7000F091B902EA58FD4F20818091B80290911F
:100A8000B90201968F7390709093B9028093B80267
:100A90002093C600FF91EF919F918F913F912F91ED
:100AA0000F900FBE0F901F901895AF92BF92DF92DC
:100AB000EF92FF920F931F93CF93DF93EC017A0194
:100AC0008B01DD24403081EE580780E0680780E02C
:100AD000780711F0DD24D39491E0A92EB12CEC8994
:100AE000FD89DD2069F0C50108A002C0880F991FAB
:100AF0000A94E2F7808360E079E08DE390E005C03E
:100B0000108260E874E88EE190E0A80197010E94ED
:100B1000C709215030404040504056954795379581
:100B2000279580E12030380720F0DD2011F0DD240A
:100B3000D6CFE889F9893083EA89FB89208319A215
:100B4000EE89FF89408121E030E0C9010C8C02C0B0
:100B5000880F991F0A94E2F7482B4083EE89FF899A
:100B60004081C9010D8C02C0880F991F0A94E2F7D9
:100B7000482B4083EE89FF894081C9010E8C02C059
:100B8000880F991F0A94E2F7482B4083EE89FF896A
:100B900080810F8C02C0220F331F0A94E2F7209548
:100BA00028232083DF91CF911F910F91FF90EF9029
:100BB000DF90BF90AF900895DC011C96ED91FC9101
:100BC0001D97E05CFF4F8191919120813181805C84
:100BD0009F4F821B930B60E470E00E94B40908955C
:100BE000DC011C96ED91FC911D97E05CFF4F20818C
:100BF0003181E054F040DF01AE5BBF4F8D919C919D
:100C000011972817390719F42FEF3FEF07C08D917F
:100C10009C91E80FF91F8081282F30E0C9010895C9
:100C2000DC011C96ED91FC911D97E05CFF4F20814B
:100C30003181E054F040DF01AE5BBF4F8D919C915C
:100C400011972817390719F42FEF3FEF10C08D9136
:100C50009C911197E80FF91F20818D919C9111971C
:100C600001968F73907011969C938E9330E0C9011A
:100C70000895DC0191968C919197882339F05496D0
:100C8000ED91FC915597808186FFF9CF91961C924A
:100C90000895CF93DF93EC01EE85FF85E05CFF4F75
:100CA00020813181E054F0402F5F3F4F2F7330702F
:100CB000DF01AE5BBF4F8D919C91119728173907CB
:100CC000D1F3E05CFF4F80819181E054F040E80F68
:100CD000F91F6083EE85FF85E05CFF4F3183208341
:100CE000EE89FF89208181E090E00F8C02C0880F9F
:100CF000991F0A94E2F7282B208381E089A3EC89CD
:100D0000FD8980818064808381E090E0DF91CF91D4
:100D100008951092BD021092BC0288EE93E0A0E00C
:100D2000B0E08093BE029093BF02A093C002B09344
:100D3000C10286E192E09093BB028093BA0282E303
:100D400092E09093C7028093C60286E792E0909368
:100D5000C9028093C80285EC90E09093CB02809307
:100D6000CA0284EC90E09093CD028093CC0280EC98
:100D700090E09093CF028093CE0281EC90E090932C
:100D8000D1028093D00282EC90E09093D3028093C2
:100D9000D20286EC90E09093D5028093D40284E056
:100DA0008093D60283E08093D70287E08093D802B5
:100DB00085E08093D90281E08093DA020895089556
:100DC000CF93DF930E94F9030E94DF060E942F0257
:100DD000C3E0D5E00E94EA012097E1F30E940305F9
:100DE000F9CF0E9460080895CF92DF92EF92FF92B0
:100DF0000F931F93CF93DF937C016B018A01C0E0B7
:100E0000D0E00FC0D6016D916D01D701ED91FC913D
:100E10000190F081E02DC7010995C80FD91F01503D
:100E200010400115110571F7CE01DF91CF911F918F
:100E30000F91FF90EF90DF90CF900895EF92FF9287
:100E40000F931F938C01DC01ED91FC910190F081D7
:100E5000E02D6DE009957C01D801ED91FC910190A8
:100E6000F081E02DC8016AE009959C012E0D3F1D1F
:100E7000C9011F910F91FF90EF900895CF93DF93D9
:100E8000EC016115710519F420E030E00FC0DB01C1
:100E90000D900020E9F71197A61BB70BE881F981A7
:100EA0000280F381E02DAD0109959C01C901DF911C
:100EB000CF9108954F925F927F928F929F92AF92BF
:100EC000BF92CF92DF92EF92FF920F931F93DF9327
:100ED000CF93CDB7DEB7A1970FB6F894DEBF0FBEA4
:100EE000CDBF2C01742ECB01223008F42AE019A2C8
:100EF00031E2C32ED12CCC0EDD1E822E9924AA24E1
:100F0000BB24672D752FA50194010E94C7097901A3
:100F10008A01C801B701A50194010E949509472DD6
:100F2000461B0894C108D1084A3014F4405D01C042
:100F3000495CF6014083E114F1040105110521F03B
:100F40007E2C5F2DC801DDCFC201B6010E943E0795
:100F5000A1960FB6F894DEBF0FBECDBFCF91DF9143
:100F60001F910F91FF90EF90DF90CF90BF90AF90C7
:100F70009F908F907F905F904F900895DC01211596
:100F8000310541F4ED91FC910190F081E02D642F49
:100F9000099508950E945A070895CF92DF92EF9223
:100FA000FF920F931F936C01E62E9A01FF2400E03D
:100FB00010E0B801A7010E94BE078C01C6010E9483
:100FC0001E07080F191FC8011F910F91FF90EF9086
:100FD000DF90CF900895CF92DF92EF92FF920F9320
:100FE0001F93CF93DF93EC016A017B01211531053B
:100FF00041F4E881F9810190F081E02D642F099599
:101000001FC02A303105D1F477FF17C0E881F9817C
:101010000190F081E02D6DE209958C014427552760
:10102000BA014C195D096E097F09CE012AE00E94C0
:101030005A079801280F391F04C02AE00E945A0756
:101040009C01C901DF91CF911F910F91FF90EF900B
:10105000DF90CF900895CF92DF92EF92FF920F939F
:101060001F936C017B019A010027F7FC0095102F5C
:10107000B801A7010E94EB078C01C6010E941E0760
:10108000080F191FC8011F910F91FF90EF90DF907B
:10109000CF9008950E943E070895EF92FF920F931C
:1010A0001F937C010E943E078C01C7010E941E070E
:1010B000080F191FC8011F910F91FF90EF9008951D
:1010C0000F931F93CF93DF93BC018230910510F4EF
:1010D00062E070E0E091DE02F091DF0240E050E07B
:1010E000A0E0B0E024C08081918186179707D0F0FE
:1010F0008617970771F482819381109729F01396D0
:101100009C938E9312972CC09093DF028093DE0203
:1011100027C04115510519F08417950718F48D0162
:10112000AC01EF01DF01828193819C01F9013097CD
:10113000D1F641155105F9F0CA01861B970B843091
:10114000910580F48A819B810115110521F0F80138
:101150009383828304C09093DF028093DE02FE01BA
:10116000329645C0FE01E80FF91F61937193029713
:10117000998388833CC08091DC029091DD02892BA9
:1011800041F480910E0290910F029093DD028093C2
:10119000DC0240911002509111024115510541F4B9
:1011A0004DB75EB780910C0290910D02481B590B10
:1011B0002091DC023091DD0224173507B0F4CA011A
:1011C000821B930B8617970780F0AB014E5F5F4F32
:1011D0008417950750F0420F531F5093DD02409340
:1011E000DC02F9016193719302C0E0E0F0E0CF010D
:1011F000DF91CF911F910F910895CF93DF939C01C1
:10120000009709F48FC0EC0122971B821A8260912B
:10121000DE027091DF026115710581F48881998188
:10122000820F931F2091DC023091DD0228173907CD
:1012300039F5D093DD02C093DC0274C0DB0140E0DD
:1012400050E0AC17BD0708F1BB83AA83FE012191D2
:101250003191E20FF31FAE17BF0779F48D919C9186
:101260001197280F391F2E5F3F4F3983288312961D
:101270008D919C9113979B838A834115510571F43D
:10128000D093DF02C093DE024DC012968D919C91E7
:101290001397AD01009711F0DC01D3CFDA0113965B
:1012A000DC93CE931297FA0121913191E20FF31F53
:1012B000CE17DF0769F488819981280F391F2E5FC7
:1012C0003F4FFA01318320838A819B8193838283FC
:1012D000E0E0F0E0DB0112968D919C91139700976E
:1012E00019F0BC01FD01F6CFAB014E5F5F4FDB0192
:1012F0008D919C91840F951F2091DC023091DD022D
:101300002817390779F4309729F41092DF021092E8
:10131000DE0202C013821282425050405093DD021E
:101320004093DC02DF91CF910895629FD001739FBB
:10133000F001829FE00DF11D649FE00DF11D929F71
:10134000F00D839FF00D749FF00D659FF00D9927B0
:10135000729FB00DE11DF91F639FB00DE11DF91FD4
:10136000BD01CF011124089597FB092E07260AD04D
:1013700077FD04D02ED006D000201AF47095619528
:101380007F4F0895F6F7909581959F4F0895A1E2BC
:101390001A2EAA1BBB1BFD010DC0AA1FBB1FEE1FEF
:1013A000FF1FA217B307E407F50720F0A21BB30B3A
:1013B000E40BF50B661F771F881F991F1A9469F7B6
:1013C00060957095809590959B01AC01BD01CF0112
:1013D0000895AA1BBB1B51E107C0AA1FBB1FA6177C
:1013E000B70710F0A61BB70B881F991F5A95A9F7CE
:1013F00080959095BC01CD010895EE0FFF1F0590DB
:0A140000F491E02D0994F894FFCF59
:10140A00202D2D2D2D2D2D2D2D2D2D2D2D2D2D2D0F
:10141A002D2D2D20524553504F4E4420544F2049D4
:10142A005251202D2D2D2D2D2D2D2D2D2D2D2D2DA6
:10143A002D2D2D2D2D2D2D2D20004D617820545828
:10144A00207265747269657320495251004461744F
:10145A00612053656E74205458204649464F2049EE
:10146A005251004461746120726561647920525856
:10147A00204649464F20495251002D2D2D2D2D2D04
:10148A002D2D2D2D2D2D2D2D2D2D2D2D2D2D2D2D82
:10149A002D2D2D2D2D2D2D2D2D2D2D2D005354413E
:1014AA005455533A20005472616E736D6974206307
:1014BA006F64652061626300426567696E207374B8
:1014CA00617274757000436F6E6669677572652024
:1014DA00526164696F002A2A2A2A2A2A2A2A2A2A6F
:1014EA002A2A2A2A2A2A2A2A2A2A2A2A2A2A2A2A52
:1014FA002A2A2A2A2A2A2A2A2A2A2A2A20206465E1
:10150A006275675F76616C20203D20008000E002F2
:10151A000000000000004906F406DC051006F0058C
:02152A00390680
:00000001FF
