:100000000C9462000C9484030C94B1030C948A0049
:100010000C948A000C948A000C948A000C948A0038
:100020000C948A000C948A000C948A000C948A0028
:100030000C948A000C948A000C948A000C948A0018
:100040000C94DE030C948A000C944E050C94A005CD
:100050000C948A000C948A000C948A000C948A00F8
:100060000C948A000C948A000000000024002700F1
:100070002A0000000000250028002B0000000000DE
:1000800023002600290004040404040404040202DA
:100090000202020203030303030301020408102007
:1000A0004080010204081020010204081020000012
:1000B0000007000201000003040600000000000029
:1000C00000000F0711241FBECFEFD8E0DEBFCDBF69
:1000D00012E0A0E0B1E0E6E1F5E102C005900D928A
:1000E000A235B107D9F713E0A2E5B2E001C01D9235
:1000F000A031B107E1F710E0C4ECD0E004C02297D2
:10010000FE010E94850AC23CD107C9F70E9466071A
:100110000C94890A0C940000FC0171836083538362
:1001200042830895FC01718F608F0895FC01808DDA
:10013000918D0895CF93DF93EC018A8160E00E9456
:10014000F90481EE8EBD0DB407FEFDCF8EB58A8118
:1001500061E00E94F904DF91CF910895EF92FF9240
:100160001F93CF93DF93EC01162F7A018A8160E011
:100170000E94F9041EBD0DB407FEFDCF8EB5FE0131
:1001800020E030E009C01EBC0DB407FEFDCF8EB5E7
:10019000828B2F5F3F4F3196E216F306A4F78A81D8
:1001A00061E00E94F9049E012E5E3F4FC901DF917C
:1001B000CF911F91FF90EF900895CF92DF92EF9231
:1001C000FF921F93CF93DF93EC01162F6A01790101
:1001D00010628A8160E00E94F9041EBD0DB407FE22
:1001E000FDCF8EB520E030E00BC0F601E20FF31F2B
:1001F00080818EBD0DB407FEFDCF8EB52F5F3F4FC2
:100200002E153F0594F38A8161E00E94F904DF9185
:10021000CF911F91FF90EF90DF90CF900895DF93E3
:10022000CF9300D000D00F92CDB7DEB7613011F080
:100230002EE001C02FE0413011F4226001C02D7F7B
:10024000298360E0AE014F5F5F4F21E030E00E9404
:10025000DD000F900F900F900F900F90CF91DF91D6
:100260000895EF92FF920F931F938C019B017A01E7
:1002700062E0A90121E030E00E94DD00C80161E1F7
:10028000A70121E030E00E94DD001F910F91FF9057
:10029000EF9008950F931F938C0161E041E00E945D
:1002A0000F01F801808161E00E94F9041F910F9114
:1002B00008950F931F938C0160E041E00E940F01AD
:1002C000F801808160E00E94F9041F910F91089568
:1002D000CF92DF92EF92FF920F931F938C017B01DD
:1002E0006A010E945901C80160EAA70196010E94B3
:1002F000DD00F801808161E00E94F90461E070E0B6
:1003000080E090E00E942604F801808160E00E9475
:10031000F9041F910F91FF90EF90DF90CF90089517
:100320000F931F938C01FC01808161E00E94BA044D
:10033000F801828161E00E94BA0481E00E942B03EF
:1003400080E00E94340385E00E9439031F910F91E1
:10035000089581E08093540208950F931F93DF93D3
:10036000CF930F92CDB7DEB780E48983809152029C
:100370009091530267E08E010F5F1F4FA80121E0AB
:1003800030E00E94DD0080E28983809152029091EA
:10039000530267E0A80121E030E00E94DD0080E127
:1003A0008983809152029091530267E0A80121E075
:1003B00030E00E94DD0080915202909153020E9431
:1003C0009A000F90CF91DF911F910F910895CF93D5
:1003D000DF938AEE92E060E071E00E94D3088091A2
:1003E00052029091530267E041E050E00E94AE005B
:1003F000FC018081C82FD0E080FF06C08AEE92E029
:100400006AE371E00E94D308C4FF06C08AEE92E05E
:1004100067E471E00E94D308C5FF06C08AEE92E04F
:100420006AE571E00E94D308C6FD03C0C7E0D0E0D2
:100430000AC08AEE92E060E771E00E94D308CE70B5
:10044000D070D595C7950E94AD01CE01DF91CF91B7
:100450000895DF93CF93CDB7DEB72A970FB6F89400
:10046000DEBF0FBECDBF80915402813011F40E94D7
:10047000E7018AEE92E067E871E00E94D3088AEE15
:1004800092E06AEA71E00E94D00880915202909155
:10049000530267E040E050E00E94AE00FC018AEEAB
:1004A00092E0608142E050E00E94530880912F0268
:1004B00090913002892B39F58AEE92E063EB71E07E
:1004C0000E94D3088AEE92E068EB71E00E94D308A4
:1004D000DE011196E7E3F2E08AE001900D9281508F
:1004E000E1F78091520290915302BE016F5F7F4FFE
:1004F0004AE050E00E94680160ED77E080E090E023
:100500000E94260406C08AEE92E06DEC71E00E9423
:10051000D3082A960FB6F894DEBF0FBECDBFCF9199
:10052000DF9108951F93DF93CF9300D0CDB7DEB74F
:100530008AEE92E040E855E260E070E00E94DB0560
:100540008AEE92E06BED71E00E94D3080E944A03AC
:100550008AE190E00E9477078093520290935302C1
:1005600069E070E04AE050E00E948C008091520205
:10057000909153020E94900181E089838AE08A83EE
:100580008091520290915302BE016F5F7F4FAE0186
:100590004E5F5F4F0E9431018AEE92E069EE71E09A
:1005A0000E94D30880912F02909130022091520234
:1005B00030915302892B21F0C9010E944A0103C0E6
:1005C000C9010E9459010E94AD018091520290918F
:1005D000530267E040E050E00E94AE00FC01108151
:1005E0008AEE92E06AEA71E00E94D0088AEE92E018
:1005F000612F42E050E00E94530880915202909196
:1006000053026BE770E00E9492008AEE92E069EF7D
:1006100071E00E94D00880915202909153020E9492
:100620009600BC018AEE92E04AE050E00E94B108D8
:1006300064E670E080E090E00E94260480E069EAD1
:1006400071E042E050E00E9461030F900F90CF9163
:10065000DF911F910895882319F48CB5806202C040
:100660008CB58F7D8CBD08959CB5937F982B9CBDD8
:1006700008952CB5382F33702C7F322B3CBD2DB50F
:1006800090E0959587959595879581702E7F822B23
:100690008DBD08958AE061E00E94F9048AE061E07E
:1006A0000E94BA048CB580618CBD8CB580648CBD11
:1006B0008DE061E00E94BA048BE061E00E94BA0420
:1006C0000895823000F5E82FF0E0EE0FFF1FEB5A9F
:1006D000FD4F71836083882319F08130A1F408C035
:1006E000809169008C7F842B80936900E89A08953B
:1006F00080916900440F551F440F551F837F842B41
:1007000080936900E99A08951F920F920FB60F9295
:1007100011242F933F934F935F936F937F938F9306
:100720009F93AF93BF93EF93FF9380915502909166
:100730005602892B29F0E0915502F0915602099555
:10074000FF91EF91BF91AF919F918F917F916F91A9
:100750005F914F913F912F910F900FBE0F901F907F
:1007600018951F920F920FB60F9211242F933F935B
:100770004F935F936F937F938F939F93AF93BF93A9
:10078000EF93FF938091570290915802892B29F0A3
:10079000E0915702F09158020995FF91EF91BF91B6
:1007A000AF919F918F917F916F915F914F913F9109
:1007B0002F910F900FBE0F901F9018951F920F92C0
:1007C0000FB60F9211242F933F938F939F93AF9364
:1007D000BF9380915D0290915E02A0915F02B09103
:1007E0006002309161020196A11DB11D232F2D5F82
:1007F0002D3720F02D570196A11DB11D20936102C8
:1008000080935D0290935E02A0935F02B0936002BA
:100810008091590290915A02A0915B02B0915C02C2
:100820000196A11DB11D8093590290935A02A09385
:100830005B02B0935C02BF91AF919F918F913F910A
:100840002F910F900FBE0F901F9018959B01AC0138
:100850007FB7F8948091590290915A02A0915B025F
:10086000B0915C0266B5A89B05C06F3F19F0019678
:10087000A11DB11D7FBFBA2FA92F982F8827860FE2
:10088000911DA11DB11D62E0880F991FAA1FBB1FFA
:100890006A95D1F7BC012DC0FFB7F8948091590239
:1008A00090915A02A0915B02B0915C02E6B5A89BC0
:1008B00005C0EF3F19F00196A11DB11DFFBFBA2F72
:1008C000A92F982F88278E0F911DA11DB11DE2E041
:1008D000880F991FAA1FBB1FEA95D1F7861B970B9C
:1008E000885E9340C8F221503040404050406851EB
:1008F0007C4F211531054105510571F60895789415
:1009000084B5826084BD84B5816084BD85B5826014
:1009100085BD85B5816085BDEEE6F0E080818160B2
:100920008083E1E8F0E010828081826080838081B2
:1009300081608083E0E8F0E0808181608083E1EB8A
:10094000F0E0808184608083E0EBF0E08081816072
:100950008083EAE7F0E08081846080838081826028
:100960008083808181608083808180688083109211
:10097000C1000895CF93DF93482F50E0CA018656F7
:100980009F4FFC0134914A575F4FFA0184918823AD
:1009900069F190E0880F991FFC01E859FF4FA5917C
:1009A000B491FC01EE58FF4FC591D491662351F4E8
:1009B0002FB7F8948C91932F909589238C938881ED
:1009C00089230BC0623061F42FB7F8948C91932F78
:1009D000909589238C938881832B88832FBF06C0B1
:1009E0009FB7F8948C91832B8C939FBFDF91CF910D
:1009F0000895482F50E0CA0182559F4FFC01249171
:100A0000CA0186569F4FFC0194914A575F4FFA01E5
:100A10003491332309F440C0222351F1233071F083
:100A2000243028F42130A1F0223011F514C02630F2
:100A3000B1F02730C1F02430D9F404C08091800097
:100A40008F7703C0809180008F7D8093800010C0DD
:100A500084B58F7702C084B58F7D84BD09C0809135
:100A6000B0008F7703C08091B0008F7D8093B0007D
:100A7000E32FF0E0EE0FFF1FEE58FF4FA591B4916A
:100A80002FB7F894662321F48C919095892302C0A6
:100A90008C91892B8C932FBF089508951F920F92EC
:100AA0000FB60F9211242F933F934F938F939F93E1
:100AB000EF93FF938091C00082FD1DC04091C6005E
:100AC0002091A2023091A3022F5F3F4F2F7330700D
:100AD0008091A4029091A5022817390771F0E09146
:100AE000A202F091A302EE59FD4F40833093A3027E
:100AF0002093A20202C08091C600FF91EF919F91C6
:100B00008F914F913F912F910F900FBE0F901F909B
:100B10001895E091F602F091F702E05CFF4F8191A9
:100B2000919120813181805C9F4F821B930B60E407
:100B300070E00E943A0A892B11F00E944D05089539
:100B40001F920F920FB60F9211242F933F938F9302
:100B50009F93EF93FF932091E6023091E7028091FB
:100B6000E8029091E9022817390731F48091C10019
:100B70008F7D8093C10014C0E091E802F091E902FA
:100B8000EA55FD4F20818091E8029091E90201969B
:100B90008F7390709093E9028093E8022093C600CF
:100BA000FF91EF919F918F913F912F910F900FBEE9
:100BB0000F901F901895AF92BF92DF92EF92FF9225
:100BC0000F931F93CF93DF93EC017A018B01DD2408
:100BD000403081EE580780E0680780E0780711F028
:100BE000DD24D39491E0A92EB12CEC89FD89DD2080
:100BF00069F0C50108A002C0880F991F0A94E2F7A6
:100C0000808360E079E08DE390E005C0108260E8C9
:100C100074E88EE190E0A80197010E944D0A2150EE
:100C2000304040405040569547953795279580E194
:100C30002030380720F0DD2011F0DD24D6CFE88900
:100C4000F9893083EA89FB89208319A2EE89FF891B
:100C5000408121E030E0C9010C8C02C0880F991F4F
:100C60000A94E2F7482B4083EE89FF894081C9014D
:100C70000D8C02C0880F991F0A94E2F7482B40831D
:100C8000EE89FF894081C9010E8C02C0880F991F2F
:100C90000A94E2F7482B4083EE89FF8980810F8C0C
:100CA00002C0220F331F0A94E2F7209528232083E5
:100CB000DF91CF911F910F91FF90EF90DF90BF9048
:100CC000AF900895DC011C96ED91FC911D97E05CBE
:100CD000FF4F8191919120813181805C9F4F821BD8
:100CE000930B60E470E00E943A0A0895DC011C96C0
:100CF000ED91FC911D97E05CFF4F20813181E05424
:100D0000F040DF01AE5BBF4F8D919C91119728178A
:100D1000390719F42FEF3FEF07C08D919C91E80F31
:100D2000F91F8081282F30E0C9010895DC011C964D
:100D3000ED91FC911D97E05CFF4F20813181E054E3
:100D4000F040DF01AE5BBF4F8D919C91119728174A
:100D5000390719F42FEF3FEF10C08D919C91119737
:100D6000E80FF91F20818D919C91119701968F7347
:100D7000907011969C938E9330E0C9010895DC0128
:100D800091968C919197882339F05496ED91FC912E
:100D90005597808186FFF9CF91961C920895CF9345
:100DA000DF93EC01EE85FF85E05CFF4F2081318110
:100DB000E054F0402F5F3F4F2F733070DF01AE5B88
:100DC000BF4F8D919C91119728173907D1F3E05CA3
:100DD000FF4F80819181E054F040E80FF91F60835C
:100DE000EE85FF85E05CFF4F31832083EE89FF892C
:100DF000208181E090E00F8C02C0880F991F0A9437
:100E0000E2F7282B208381E089A3EC89FD8980818A
:100E10008064808381E090E0DF91CF91089510920B
:100E2000ED021092EC0288EE93E0A0E0B0E0809337
:100E3000EE029093EF02A093F002B093F10285E4EA
:100E400092E09093EB028093EA0282E692E0909324
:100E5000F7028093F60286EA92E09093F90280937B
:100E6000F80285EC90E09093FB028093FA0284EC08
:100E700090E09093FD028093FC0280EC90E09093D0
:100E8000FF028093FE0281EC90E090930103809337
:100E9000000382EC90E0909303038093020386ECBE
:100EA00090E0909305038093040384E0809306030D
:100EB00083E08093070387E08093080385E08093B5
:100EC000090381E080930A0308950895CF93DF9387
:100ED0000E947F040E9465070E949202C9E8D5E043
:100EE0000E9429022097E1F30E948905F9CF0E9410
:100EF000E6080895CF92DF92EF92FF920F931F932F
:100F0000CF93DF937C016B018A01C0E0D0E00FC07A
:100F1000D6016D916D01D701ED91FC910190F081A9
:100F2000E02DC7010995C80FD91F015010400115C8
:100F3000110571F7CE01DF91CF911F910F91FF90B5
:100F4000EF90DF90CF900895EF92FF920F931F9351
:100F50008C01DC01ED91FC910190F081E02D6DE0C0
:100F600009957C01D801ED91FC910190F081E02D73
:100F7000C8016AE009959C012E0D3F1DC9011F9112
:100F80000F91FF90EF900895CF93DF93EC016115DF
:100F9000710519F420E030E00FC0DB010D90002056
:100FA000E9F71197A61BB70BE881F9810280F3815D
:100FB000E02DAD0109959C01C901DF91CF91089504
:100FC0004F925F927F928F929F92AF92BF92CF92F9
:100FD000DF92EF92FF920F931F93DF93CF93CDB7E2
:100FE000DEB7A1970FB6F894DEBF0FBECDBF2C01C0
:100FF000742ECB01223008F42AE019A231E2C32E6C
:10100000D12CCC0EDD1E822E9924AA24BB24672D60
:10101000752FA50194010E944D0A79018A01C8012A
:10102000B701A50194010E941B0A472D461B089495
:10103000C108D1084A3014F4405D01C0495CF60192
:101040004083E114F1040105110521F07E2C5F2D90
:10105000C801DDCFC201B6010E94C407A1960FB638
:10106000F894DEBF0FBECDBFCF91DF911F910F91DE
:10107000FF90EF90DF90CF90BF90AF909F908F90B8
:101080007F905F904F900895DC012115310541F468
:10109000ED91FC910190F081E02D642F0995089568
:1010A0000E94E0070895CF92DF92EF92FF920F9394
:1010B0001F936C01E62E9A01FF2400E010E0B801B6
:1010C000A7010E9444088C01C6010E94A407080FD2
:1010D000191FC8011F910F91FF90EF90DF90CF90E3
:1010E0000895CF92DF92EF92FF920F931F93CF93C9
:1010F000DF93EC016A017B012115310541F4E881A0
:10110000F9810190F081E02D642F09951FC02A30EC
:101110003105D1F477FF17C0E881F9810190F081A2
:10112000E02D6DE209958C0144275527BA014C1931
:101130005D096E097F09CE012AE00E94E00798014F
:10114000280F391F04C02AE00E94E0079C01C90152
:10115000DF91CF911F910F91FF90EF90DF90CF9093
:101160000895CF92DF92EF92FF920F931F936C013D
:101170007B019A010027F7FC0095102FB801A70109
:101180000E9471088C01C6010E94A407080F191F54
:10119000C8011F910F91FF90EF90DF90CF900895BD
:1011A0000E94C4070895EF92FF920F931F937C0152
:1011B0000E94C4078C01C7010E94A407080F191FD1
:1011C000C8011F910F91FF90EF9008950F931F9307
:1011D000CF93DF93BC018230910510F462E070E0A0
:1011E000E0910E03F0910F0340E050E0A0E0B0E08A
:1011F00024C08081918186179707D0F086179707C2
:1012000071F482819381109729F013969C938E93A9
:1012100012972CC090930F0380930E0327C04115A3
:10122000510519F08417950718F48D01AC01EF01F1
:10123000DF01828193819C01F9013097D1F641153C
:101240005105F9F0CA01861B970B8430910580F493
:101250008A819B810115110521F0F8019383828316
:1012600004C090930F0380930E03FE01329645C095
:10127000FE01E80FF91F61937193029799838883A8
:101280003CC080910C0390910D03892B41F4809117
:1012900033029091340290930D0380930C0340919C
:1012A0003502509136024115510541F44DB75EB7F4
:1012B0008091310290913202481B590B20910C030E
:1012C00030910D0324173507B0F4CA01821B930B2C
:1012D0008617970780F0AB014E5F5F4F8417950725
:1012E00050F0420F531F50930D0340930C03F9012C
:1012F0006193719302C0E0E0F0E0CF01DF91CF9104
:101300001F910F910895CF93DF939C01009709F4EB
:101310008FC0EC0122971B821A8260910E0370919C
:101320000F036115710581F488819981820F931FE4
:1013300020910C0330910D032817390739F5D0930C
:101340000D03C0930C0374C0DB0140E050E0AC1708
:10135000BD0708F1BB83AA83FE0121913191E20F01
:10136000F31FAE17BF0779F48D919C911197280F49
:10137000391F2E5F3F4F3983288312968D919C91A0
:1013800013979B838A834115510571F4D0930F0302
:10139000C0930E034DC012968D919C911397AD0191
:1013A000009711F0DC01D3CFDA011396DC93CE93D2
:1013B0001297FA0121913191E20FF31FCE17DF0747
:1013C00069F488819981280F391F2E5F3F4FFA01F8
:1013D000318320838A819B8193838283E0E0F0E0E4
:1013E000DB0112968D919C911397009719F0BC0127
:1013F000FD01F6CFAB014E5F5F4FDB018D919C91FC
:10140000840F951F20910C0330910D032817390785
:1014100079F4309729F410920F0310920E0302C052
:10142000138212824250504050930D0340930C039C
:10143000DF91CF910895629FD001739FF001829F49
:10144000E00DF11D649FE00DF11D929FF00D839F53
:10145000F00D749FF00D659FF00D9927729FB00DF0
:10146000E11DF91F639FB00DE11DF91FBD01CF0103
:101470001124089597FB092E07260AD077FD04D082
:101480002ED006D000201AF4709561957F4F0895F4
:10149000F6F7909581959F4F0895A1E21A2EAA1B09
:1014A000BB1BFD010DC0AA1FBB1FEE1FFF1FA21714
:1014B000B307E407F50720F0A21BB30BE40BF50B11
:1014C000661F771F881F991F1A9469F7609570959A
:1014D000809590959B01AC01BD01CF010895AA1B99
:1014E000BB1B51E107C0AA1FBB1FA617B70710F00F
:1014F000A61BB70B881F991F5A95A9F78095909541
:10150000BC01CD010895EE0FFF1F0590F491E02D71
:061510000994F894FFCFDE
:10151600202D2D2D2D2D2D2D2D2D2D2D2D2D2D2D02
:101526002D2D2D20524553504F4E4420544F2049C7
:101536005251202D2D2D2D2D2D2D2D2D2D2D2D2D99
:101546002D2D2D2D2D2D2D2D200054585F4649462D
:101556004F2046756C6C004D61782054582072659A
:101566007472696573204952510044617461205355
:10157600656E74205458204649464F204952510002
:10158600446174612072656164792052582046492D
:10159600464F20495251002D2D2D2D2D2D2D2D2D0F
:1015A6002D2D2D2D2D2D2D2D2D2D2D2D2D2D2D2D65
:1015B6002D2D2D2D2D2D2D2D2D00535441545553AC
:1015C6003A200074657374005472616E736D6974A9
:1015D60020636F64652061626320676F00526563F4
:1015E6006569657665204D6F646500426567696E5D
:1015F600207374617274757000436F6E66696775E7
:10160600726520526164696F002A2A2A2A2A2A2AC8
:101616002A2A2A2A2A2A2A2A2A2A2A2A2A2A2A2A24
:101626002A2A2A2A2A2A2A2A2A2A2A2A2A2A2A201E
:101636002064656275675F76616C20203D2000013D
:1016460000800010030000010203040506070809D4
:101656000A00000000CF067A07620696067606BFE5
:0216660006007C
:00000001FF
